:020000040800F2
:10000000887A002069030008710300087303000860
:10001000750300087703000879030008000000005A
:10002000000000000000000000000000B102000815
:100030007D030008000000000503000889B20008E5
:100040008303000883030008830300088303000878
:100050008303000883030008711F0008830300085E
:100060008303000883030008830300088303000858
:100070008303000883030008611700088117000844
:1000800083030008A1170008830300088303000806
:10009000830300088303000883030008BD230008CE
:1000A0008303000883030008830300088303000818
:1000B0008303000883030008830300088303000808
:1000C00083030008830300088303000883030008F8
:1000D00083030008C53F00082D4000089540000834
:1000E00045210008830300088303000883030008F8
:1000F000830300088303000883030008C117000876
:1001000083030008830300088303000883030008B7
:10011000F53E00085D3F00088303000883030008E4
:100120008303000883030008830300088303000897
:100130008303000883030008830300088303000887
:100140008303000883030008830300088303000877
:1001500083030008E117000801180008FD400008AB
:100160008303000883030008830300088303000857
:100170008303000883030008830300088303000847
:100180008303000883030008830300088303000837
:100190008303000883030008830300088303000827
:1001A00000000000000000008303000800F002F8D7
:1001B00000F06FF80AA090E8000C82448344AAF192
:1001C0000107DA4501D100F064F8AFF2090EBAE890
:1001D0000F0013F0010F18BFFB1A43F0010318477B
:1001E000CC2A0100EC2A01000A444FF0000C10F860
:1001F000013B13F0070408BF10F8014B1D1108BFA5
:1002000010F8015B641E05D010F8016B641E01F844
:10021000016BF9D113F0080F1EBF10F8014BAD1C94
:100220000C1B09D16D1E58BF01F801CBFAD505E0B2
:1002300014F8016B01F8016B6D1EF9D59142D6D30C
:10024000704700000023002400250026103A28BF34
:1002500078C1FBD8520728BF30C148BF0B60704738
:1002600066290CF02A81642900F0B480782900F016
:10027000ED80002070471FB50CF015F900F076FDF9
:100280000400002000210BF041FCE0601FBD10B510
:1002900010BD00F068FE1146FFF7EDFF07F058FBB8
:1002A00000F086FE03B4FFF7F2FF03BC00F08AFE05
:1002B0002A4B19680868B0E8F04F80F30988BFF34B
:1002C0006F8F4FF0000080F311887047000000002E
:1002D00006480068006880F3088862B661B6BFF31C
:1002E0004F8FBFF36F8F00DF00BF00BF08ED00E04E
:1002F000DFF80C00016841F470010160704700BF35
:1003000088ED00E0EFF30980BFF36F8F134B1A689D
:100310001EF0100F08BF20ED108A20E9F04F10608A
:1003200008B44FF0BF0080F31188BFF34F8FBFF3C5
:100330006F8F0AF02FFE4FF0000080F3118808BC89
:1003400019680868B0E8F04F1EF0100F08BFB0EC55
:10035000108A80F30988BFF36F8F704780030020F5
:10036000EFF30580704700000948804709480047BF
:10037000FEE7FEE7FEE7FEE7FEE7FEE7FEE7FEE755
:10038000FEE7FEE704480549054A064B70470000B2
:10039000F93A0008AD01000888740020887A00202E
:1003A00088760020887600200FB41CB5084B06AA7A
:1003B0007B4469460090059800F0BBFC0446002091
:1003C000694600F0C9FC20461CBC5DF814FB000027
:1003D000A50900002DE9F0410646002410687529A2
:1003E000314616A510D0AFF30080002802DA404253
:1003F00013A507E031688A0701D512A502E0490775
:1004000004D511A5012401E0AFF3008000210A22E8
:1004100006F1240709E0B0FBF2FCB0FBF2F302FBAB
:100420001C00303078541846491C0028F3D123466C
:100430002A463046BDE8F04100F00DBA0000000049
:100440002D0000002B0000002000000070B50446C5
:100450000D4621461068AFF300802188090502D5BA
:100460000F4A7A4402E00E4A7A440E32002104F127
:10047000240305E000F00F060009965D5E54491C58
:100480000028F7D120780023000704D5702D02D072
:1004900009B1022311322046BDE8704000F0DBB9FB
:1004A0007D2501002DE9F05F894604464FF0000AE2
:1004B000DFF824B1FB44C0F820A02046E16888475B
:1004C00000287DD0252806D0D4E901219047206A54
:1004D000401C2062F1E700255F462046E16888471E
:1004E0002028064607DB312E05D2B81910F8200C5B
:1004F00008B10543F1E7A80701D525F00405C4F8C4
:100500001CA00027C4F818A02A2E09D0304603F0FA
:1005100006FF38B304EB8708303EC8F8186019E0CE
:1005200059F8041B204604EB87029161E168884773
:10053000012F064618D1E069002820DA25F02005B1
:100540001DE0D8F8180000EB800006EB40003038C2
:10055000C8F818002046E1688847064603F0DFFE29
:100560000028EED1012F0AD02E2E08D12046E168B6
:1005700088477F1C0646022F45F02005C4DBA06992
:10058000002803DA404245F00105A061E80701D0E8
:1005900025F01005A6B1A6F14100192802D8203691
:1005A00045F400654A463146204625604D46FFF732
:1005B00057FE60B1012807D0ED1D25F0070000E0CF
:1005C00007E000F1080978E705F1040975E730460E
:1005D0007AE7206ABDE8F09F5325010030B5054653
:1005E0000B462A4613F8014B12F8010B08B1A04242
:1005F000F8D01CB1002802D06D1CF1E7284630BDB0
:1006000010B5431C02E010F8011B71B18107FAD14B
:100610004FF0013202C88C1A8C4314EAC211F9D08F
:10062000C01A0A0603D0C01E10BDC01A10BD0A04AD
:1006300001D0801E10BD0902FCD0401E10BD032A4F
:1006400040F2308010F0030C00F0158011F8013BEF
:10065000BCF1020F624498BF11F801CB00F8013BD6
:1006600038BF11F8013BA2F1040298BF00F801CB9A
:1006700038BF00F8013B11F0030300F02580083A71
:10068000C0F0088051F8043B083A51F804CBA0E8C8
:100690000810F5E7121D5CBF51F8043B40F8043B1D
:1006A000AFF30080D20724BF11F8013B11F801CB52
:1006B00048BF11F8012B24BF00F8013B00F801CB23
:1006C00048BF00F8012B704710B5203AC0F00B80EE
:1006D000B1E81850203AA0E81850B1E81850A0E846
:1006E0001850BFF4F5AF5FEA027C24BFB1E81850A0
:1006F000A0E8185044BF18C918C0BDE810405FEA10
:10070000827C24BF51F8043B40F8043B08BF70478B
:10071000D20728BF31F8023B48BF11F8012B28BF90
:1007200020F8023B48BF00F8012B704702F0FF039E
:1007300043EA032242EA024200F002B84FF000020C
:100740000429C0F0128010F0030C00F01B80CCF1E3
:10075000040CBCF1020F18BF00F8012BA8BF20F851
:10076000022BA1EB0C0100F00DB85FEAC17C24BFA5
:1007700000F8012B00F8012B48BF00F8012B70474F
:100780004FF0000200B5134694469646203922BF2A
:10079000A0E80C50A0E80C50B1F12001BFF4F7AF75
:1007A000090728BFA0E80C5048BF0CC05DF804EB57
:1007B000890028BF40F8042B08BF704748BF20F8C5
:1007C000022B11F0804F18BF00F8012B704700007A
:1007D0004FF0013C50F8042B51F8043B9A4221D1D0
:1007E000A2EB0C03934313EACC1317D150F8042B5C
:1007F00051F8043B9A4215D1A2EB0C03934313EA40
:10080000CC130BD150F8042B51F8043B9A4209D178
:10081000A2EB0C03934313EACC13DBD04FF00000A0
:10082000704700BFD01A01BAB1FA81F101F0180186
:1008300022FA01F0CB40C1F12001DBB2C0B2C01AF4
:100840002CFA01F3D11A914311EAC311E6D1704792
:100850007047704770472DE9F0470D46994692461C
:10086000044600F124080168880604D5E06921F0F7
:100870001001216000E00120A84201DD471B00E0DB
:100880000027A1697A1902EB0900081AA0612078F3
:10089000C00602D42046AFF30080002608E0D4E969
:1008A00001211AF806009047206A401C761C20623D
:1008B0004E45F4DB2078C0060AD52046AFF3008011
:1008C00006E0D4E9012130209047206A401C2062D4
:1008D000381EA7F10107F4DC07E0D4E9012118F87C
:1008E00005009047206A401C2062281EA5F10105E2
:1008F000F3DC2046AFF300802078000602D502200A
:10090000BDE8F0870120FBE770472DE9FF4F0C465B
:100910001E464FF0FF378BB0D2E90001DDF8608052
:100920000A908A46C1F30A5505B93D46002108469A
:100930004FF00000BAF1000F00F4400005DA00EBC0
:1009400080004FF4400101EA50004FEA9059B9F19C
:10095000010F00DDB9460A9850EA4A000ED044F66D
:100960001050A5F2FF3545432F14B8F1000F1ED0EB
:100970007542291E1EDDC9F100021CE0B8F1010F0D
:100980004FF0000001D0302103E0F24305E0215494
:10099000401CB042FBDB30460022002121540B9961
:1009A000C1F80880C1E900200FB0BDE8F08FBD1B81
:1009B0006D1CDEE74A4600DA694206A800F060FADC
:1009C00006AB93E8070003AB83E8070050460A999B
:1009D00000F0FEFA8DE80700A0F500501F380090E7
:1009E0000398002D0ADD42F21F014A460844002305
:1009F00003A90390684600F067FD09E0A0F50050E8
:100A00004A461F38002303A90390684600F071FD91
:100A10008DE807000004000C03D04FF0FF304108C0
:100A200000E01046B8F1000F03D0002200921546F6
:100A30001EE0751E05D400F09DF9303262556D1E22
:100A4000F9D5B3460122084302D000227F1C04E0FE
:100A50002078302801D100227F1E002A099784D0F7
:100A60001DE0112D07DA00F085F9303262556D1C5A
:100A700050EA0102F5D1084302D00098C8B10EE057
:100A80000021681E05E0235C625C63542254401E12
:100A9000491C8142F7DBAB46A81B401E0990002091
:100AA00004F80B000B98099AC0F80880C0E9002BE5
:100AB0007AE711264FF0000857E72DE9F04F8846F6
:100AC0000446D21D22F0070191B0D1E90001CDE921
:100AD0000A0103F002FC02460B98C00F01D02D2042
:100AE00007E02068810701D52B2002E0202101EAE0
:100AF000C000032A099001D0072A05DB03464146BE
:100B0000204600F07DF90BE12078800601D5E069F0
:100B100000E00620B8F1650F814606D0B8F1660FF7
:100B200018D0B8F1670F70D131E00020B9F1110F82
:100B3000009001DB112301E009F101030AAA01A9D8
:100B40000CA8FFF7E2FEDDE90C70002609F10105B3
:100B5000834647E001204B4600904FF000470AAA29
:100B600001A90CA8FFF7D1FEDDE90DB00C995D4697
:100B7000002610B909F101000D18B9EB050003D4E6
:100B8000C0F1FF3609F10105A5EB09002BE0B9F131
:100B9000010F01DA4FF001090020B9F1110F0090A7
:100BA000484601DD112300E003460AAA01A90CA86A
:100BB000FFF7ABFEDDE90C704D460026834620783A
:100BC00000070AD4AB4500DA5D4601A8012D04DD1B
:100BD000411911F8011C302907D04F4502DA17F1ED
:100BE000040F04DA012082460FE06D1EEEE7002FAD
:100BF00002DCED1B3E4403E0781CA84200DD7D1CB6
:100C0000B81B00F1010A4FF000472078000703D419
:100C1000AA4501DB4FF0FF3A0021B7F1004F0DF17B
:100C200043088DF8431024D002202B23002F01DA33
:100C30007F422D230A21021EA0F1010000DC5FB1DA
:100C400097FBF1FC97FBF1F201FB1C7C17460CF1C2
:100C5000300C08F801CDEEE7A8F1010003702188FF
:100C6000090501D5452100E06521A0F1010800F842
:100C7000011C09980FA9A1EB0807FF1D00B1012075
:100C8000411901EBEA70A1693844081A401EA061BD
:100C90002078C00602D42046AFF30080099828B11E
:100CA000D4E901219047206A401C20622078C006C8
:100CB00022D52046AFF300801EE0002E04DBB345B2
:100CC00002DD01A8805D00E03020D4E901219047D9
:100CD000206A401C2062761CAAF101005FEA000A2B
:100CE0000AD100F043F8C0680168405CD4E90121F2
:100CF0009047206A401C2062281EA5F10105DCDC1B
:100D000007E0D4E9012118F8010B9047206A401C44
:100D10002062381EA7F10107F3DC2046AFF3008004
:100D2000032011B041E6000001694A1C0261087805
:100D3000704700B58FB0CDE901310021059105491B
:100D40007944CDE9031011466846FFF7ABFB0FB0BD
:100D500000BD0000E5FFFFFF0A6802F8010B0A6012
:100D60007047000000487047287400200048704712
:100D70004874002030B5B0F10A024FEA900E71F1CC
:100D800000034EEA817EB0EB0E0061EB91014FEA69
:100D9000101E4EEA017E10EB0E0041EB11114FEADE
:100DA000102E4EEA016E10EB0E0041EB11214FEABE
:100DB000104E4EEA014E10EB0E0041EB114140186F
:100DC00041F100014FEAD00040EA41704FEAD10101
:100DD00010EB80054FEA810444EA907444EB01046F
:100DE0006D1944EB0404521BA3414FF0000348BFAC
:100DF0000A3200D530BD401C41F1000130BD000079
:100E00002DE9F0411F46044603260168072A01F434
:100E1000006004DB08B116A505E016A503E008B1E3
:100E200015A500E015A521F010002060A069C01EE6
:100E3000A0610FB1401EA0612046AFF300804FB10A
:100E4000D4E9012138469047206A401C2062C01C2A
:100E5000206206E0206AFAE7D4E9012115F8010BC7
:100E60009047761EF8D22046AFF30080BDE8F081AF
:100E70004E414E006E616E00494E4600696E66003E
:100E80002DE9F047814616468AB0354878440DC8AA
:100E90008DE80D0032487844801C03AC0DC884E80E
:100EA0000D0041F69B300844372190FBF1F290FB96
:100EB000F1F5A5F1800501FB12041B3C02D564424B
:100EC000012000E00020DFF898A080460027FA44C7
:100ED000AAF1BE0A0EE0E0070AD03246684607EBE8
:100EE000470101230AEB810100F003FB8DE80700B5
:100EF00064107F1C002CEED1194F7F44AE3F19E0E7
:100F0000E80715D007EB04100DF1180A90E80E0061
:100F10008AE80E00C068F04201D198190890324664
:100F2000012306A903A800F0E4FA03AB83E8070055
:100F30006D10641C002DE3D14FF001033246694669
:100F4000B8F1000F03A802D000F0BEFA01E000F0F3
:100F5000D0FAC9E90001C9F808200AB0BDE8F08755
:100F6000081C010070477546FFF7FCFEAE46050001
:100F70006946534620F00700854618B020B5FFF7B4
:100F800001FABDE820404FF000064FF000074FF097
:100F900000084FF0000B21F00701AC46ACE8C00997
:100FA000ACE8C009ACE8C009ACE8C0098D467047A0
:100FB00010B50446AFF300802046BDE81040FFF7AF
:100FC00071B9000001491820ABBEFEE726000200FF
:100FD0005FEA400C08BF91F0000F4FEA8C234FEA04
:100FE000C12243EA51514FEA1C5018BF00F5F040AE
:100FF0004FEA300018BF41F000415FEA6C5C00F03E
:101000002980BCF1FF3F08BF40F080407047130CBF
:1010100006BF12044FF0100C4FF0000C130E04BF6B
:1010200012020CF1080C130F04BF12010CF1040C96
:10103000930F04BF92000CF1020CD30F04BF5200B7
:101040000CF1010C11464FF00002A0F11F00A0EBC3
:101050000C00704711F0004F08BF704731F000419D
:101060003FF4D5AF0B0C06BF09044FF0100C4FF046
:10107000000C0B0E04BF09020CF1080C0B0F04BF8F
:1010800009010CF1040C8B0F04BF89000CF1020C58
:10109000CB0F04BF49000CF1010CCCF12003A0EBF5
:1010A0000C0022FA03F302FA0CF241EA030100F108
:1010B0000100704720F07F4C80EA030023F07F4757
:1010C000ACEB070303F57C5300F0004003F1FF0392
:1010D0002DE980494FEA154B09B44FEA144325EA3C
:1010E0000B4E24EA03480FF2042606EB13274908A7
:1010F0003E785FEA320203FB0667C7F5000707FB8D
:1011000006F64FEA54374FEAD64606F1020607FBC9
:10111000066CCCF1005C4FEA1C472CEA074C07FB3D
:1011200006F40CFB06F504EB15464FEA961634BFA1
:1011300000204FF000404FEAD13706FB07FC4FEA92
:101140001C4C0CFB0BF7D21B03FB0CF761EB0701EC
:101150000CFB0EF7B0EB074072EB17420CFB08F7E5
:1011600034BFA2EB0742B2EB074261EB17414FEAF3
:101170000C444FEA910706FB07FC4FEA1C4C0CFBA2
:101180000BF7B0EBC74072EB573203FB0CF734BFE1
:10119000A2EBC742B2EBC74261EB57310CFB0EF733
:1011A000B0EBC70072EB57720CFB08F734BFA2EB31
:1011B000C702B2EBC70261EB5771039F4FEA81612F
:1011C00041EA921104EBCC044FEAD1374FEA826234
:1011D00006FB07FC42EA90124FEA80604FEA1C4C83
:1011E0000CFB0BF7D21B03FB0CF761EB07010CFBAD
:1011F0000EF7B0EB074072EB17420CFB08F734BF59
:10120000A2EB0742B2EB074261EB17414FEA8C5564
:101210004FEA910704EB9C2406FB07FC4FEA1C4CA9
:101220000CFB0BF7B0EBC74072EB573203FB0CF72C
:1012300034BFA2EBC742B2EBC74261EB57310CFBA4
:101240000EF7B0EBC70072EB57720CFB08F734BF18
:10125000A2EBC702B2EBC70261EB577115EB4C254D
:101260004FEA816141EA92114FEA82624FEAD13737
:1012700042EA901206FB07FC44F100044FEA80604A
:101280004FEA1C4C0CFB0BF7D21B03FB0CF761EB7A
:1012900007010CFB0EF7B0EB074072EB17420CFB9B
:1012A00008F734BFA2EB0742B2EB074261EB1741EC
:1012B00015EB1C154FEA813141EA92414FEA823227
:1012C00042EA90424FEA80304FEA0C7644F1000443
:1012D00048EA03434EEA0B484FF0000EB2EB080C0D
:1012E00071EB030724BF624639464EEB0E0E4FF0FA
:1012F000000B0018524149414BEB0B0BB2EB080CB1
:1013000071EB03077BF1000B24BF624639464EEBBD
:101310000E0E4FF0000B0018524149414BEB0B0BE6
:10132000B2EB080C71EB03077BF1000B24BF6246A4
:1013300039464EEB0E0E51EA020718BF46F0010681
:1013400016EB0E7655F1000254F1000103D5BDE80D
:101350008901BDE80088BDE88901BDE80048B619EB
:10136000524141EB0101A3F10103704780807F7E70
:101370007D7C7B7A7978777676757473727171700B
:101380006F6E6E6D6C6C6B6A6A69686867666665BD
:101390006464636362616160605F5F5E5E5D5D5C4B
:1013A0005C5B5B5A5A5959585857575656555555BC
:1013B0005454535352525251515050504F4F4F4E1C
:1013C0004E4D4D4D4C4C4C4B4B4B4A4A4A4949496A
:1013D00048484847474747464646454545444444AC
:1013E000444343434342424242414141002B9C46D5
:1013F00030D477002BD01CB54FEA370703B44FF039
:1014000010004FF01001BAF1000F06D0BCF1000F30
:10141000DCBF40F0080040F008014FF000000FBCB6
:10142000BDE810400BF1010BBBF1010F08BF5FEAF3
:10143000170722BF12F1010211F101014FF0004123
:1014400043F1000300F0004043EA00007047F9D385
:101450005708D0E746EA064613F1400F4FEA164612
:101460001FDD13F1200FDFBF16430A460021203392
:101470005B42BED0C3F1200746EA064602FA07F7F0
:101480004FEA164646EA0706C3F1200722FA03F29E
:1014900001FA07F721FA03F14FF0000342EA0702CD
:1014A000A7E746EA020646EA06464FEA164646EA35
:1014B0000106BCBF46EA0646360C4FF000034FF06B
:1014C00000024FF0000194E72DE9804C9A469346C4
:1014D00070B491E8380007C831EA400C48BF34EADC
:1014E000430C03D5FFF7E6FDFFF780FFF0BCBDE836
:1014F000008C2DE9804C9A46934670B491E83800F0
:1015000007C810F0804F08BF13F0804F03D100F0E0
:1015100005F8FFF76BFFF0BCBDE8008C20F07F47BB
:1015200080EA030023F07F4C07EB0C03A3F57C5308
:1015300000F00040A3F1FE0392F0000F00F0B38032
:1015400095F0000F00F077802DE901494FEA114036
:101550004FEA144621EA004800FB06FC24EA06474D
:1015600008FB06F607FB08F800FB07F718EB064830
:101570004CEB164C4FEA124B18EB07484FEA154656
:101580004CEB174022EA0B4E0BFB06FC25EA064704
:101590000EFB06F607FB0EFE0BFB07F71EEB064ED7
:1015A0004CEB164C4FF000061EEB074E4CEB174B66
:1015B00018EB0B0840F1000018EB0E0B58EB00087D
:1015C00040F100008F1A4FF000013CBFC943661B79
:1015D00014BFB5EB040C00213CBFC943F61B4FEA16
:1015E00017444EEA8E0E27EA04454FEA1C4704FBD7
:1015F00007622CEA074C05FB07F70CFB05F604FB1A
:101600000CFC16EB074642EB174216EB0C4642EB7E
:101610001C421BEB060658EB0202414146EA9E06BD
:1016200001D5BDE80189B619524141EB0101A3F191
:101630000103BDE801894FEA14454FEA114724EA46
:10164000054621EA074C05FB07F406FB07F70CFBF0
:1016500006F105FB0CFC11EB074144EB17444FEA84
:10166000124711EB0C4144EB1C4422EA074C05FBEA
:1016700007F206FB07F70CFB06F605FB0CFC16EB66
:10168000074642EB174216EB0C4642EB1C456A1824
:1016900054F1000148BF7047B619524141EB0101B6
:1016A000A3F10103704795F0000F37D04FEA1142C4
:1016B0004FEA144721EA024624EA074C02FB07F1ED
:1016C00006FB07F70CFB06F402FB0CFC14EB0744CB
:1016D00041EB17414FEA154714EB0C4441EB1C4119
:1016E00025EA074C02FB07F506FB07F70CFB06F69D
:1016F00002FB0CFC16EB074645EB174516EB0C46B8
:1017000045EB1C42121951F1000148BF7047B61950
:10171000524141EB0101A3F1010370474FEA144527
:101720004FEA114724EA054621EA074C05FB07F179
:1017300006FB07F70CFB06F24FF0000605FB0CFC5E
:1017400012EB074241EB174112EB0C4251EB1C41EB
:1017500048BF7047921841EB0101A3F101037047A4
:1017600010B506480468A16CA06B00F059F8002081
:1017700084F84C00D4E91410884710BD58030020A9
:1017800010B506480468A16CA06B00F049F8002071
:1017900084F84C00D4E91410884710BD5C03002085
:1017A00010B506480468A16CA06B00F039F8002061
:1017B00084F84C00D4E91410884710BD540300206D
:1017C00010B506480468A16CA06B00F029F8002051
:1017D00084F84C00D4E91410884710BD6003002041
:1017E00010B506480468A16CA06B00F019F8002041
:1017F00084F84C00D4E91410884710BD640300201D
:1018000010B506480468A16CA06B00F009F8002030
:1018100084F84C00D4E91410884710BD5003002010
:101820000246094B9A4201D2084801E006481038A6
:1018300001F000531BB1064B0B40C36002E0044BA8
:101840000B4083607047000010640240006002405B
:101850007D0F7D0F21B1026842F00102026003E0BA
:10186000026822F00102026070470000016821F066
:10187000010101600021016041608160C16001617E
:10188000212141614A49884204D13D21484A103A08
:1018900091608CE046491831884205D14FF474615B
:1018A000434A103A916082E041493031884205D183
:1018B0004FF474113E4A103A916078E03C49483147
:1018C000884205D14FF07461394A103A91606EE058
:1018D00037496031884204D13649354A103AD160DF
:1018E00065E033497831884204D13349304A103AAF
:1018F000D1605CE02E499031884204D12F492C4AB6
:10190000103AD16053E02A49A831884205D14FF0FE
:101910003D51274A103AD16049E02949884204D113
:101920003D21274A083A116041E025491831884293
:1019300005D14FF47461224A083A116037E020491A
:101940003031884205D14FF474111D4A083A1160B4
:101950002DE01B494831884205D14FF07461184A87
:10196000083A116023E016496031884204D11149D8
:10197000134A121F11601AE011497831884204D1CC
:101980000D490F4A121F116011E00D499031884234
:1019900004D10A490A4A121F116008E00849A83117
:1019A000884204D14FF03D51054A121F1160704723
:1019B000106002403D000020400F002000003D204C
:1019C000106402400146486880B2704710B501F0CB
:1019D00080034BB122B1436943F08003436103E0CC
:1019E000436923F08003436180290BD02AB1036847
:1019F00001F01E042343036004E0036801F01E04A9
:101A0000A343036010BD000010B500220268134B11
:101A10001A40CC680B6823434C6923438C692343E9
:101A2000CC6923430C6A23434C6A23438C6A2343C7
:101A30004C6B23438C6B23431A430260426922F0B0
:101A40000702D1E90B3423431A4342610B69436017
:101A50004B6883608B68C36010BD00003F801CF042
:101A6000416070470021016041608160C160016197
:101A700041618161C161016241628162C162016350
:101A8000416381637047002104E000BF00BF00BFD5
:101A900000BF491C8142F8D3704710B5044603E0EB
:101AA0004FF47A7000F006F8201EA4F101018CB208
:101AB000F6D110BD014605E0002001E0421CD0B285
:101AC0000428FBDB0A1EA1F1010399B2F4D170478F
:101AD0001CB54FF48050009001208DF804000020C8
:101AE0008DF8060003208DF805006946044800F0D3
:101AF000C0FE4FF48051024800F031FF1CBD0000D1
:101B0000000C0240034606210622124801881248B2
:101B10000288ABB1012B1BD13AB94EF6EE6081427F
:101B200001D1002070470120FCE739B94EF6EE6084
:101B3000824201D10120F5E70020F3E7AB20F1E775
:101B400009B90020EEE70AB90120EBE7AB20E9E78D
:101B50000020E7E7000004080040040810B509244D
:101B60000221302000F0CCFD0446092C01D0204693
:101B700010BD0021074800F031FE0446092C01D0B9
:101B80002046F5E70221382000F0BAFD0446204641
:101B9000EEE70000000004082DE9F0474FF0060AC8
:101BA000062600250027A8464FF0FF397748B0F8F1
:101BB00000A077480688BAF1000079D0A0F56E4001
:101BC000EE3868B3A0F588501138002871D14EB9AD
:101BD0000221302000F094FD0446092C1FD020463D
:101BE000BDE8F0874EF6EE60864211D1022130202A
:101BF00000F086FD0446092C01D02046F0E70021C4
:101C0000634800F0EBFD0446092C08D02046E7E7C6
:101C1000FFF7A4FF0446092C01D02046E0E7B1E01D
:101C20007EBB002522E05948C0885A4931F815107A
:101C3000884201D10FFA85F94D4515D0554931F843
:101C40001500554900F01CF98046B8F1010F0BD082
:101C5000504931F815005049098800F041F907460C
:101C6000092F01D03846BBE7681C85B20F2DDADB9F
:101C70000021464800F0B2FD0446092C02D020465F
:101C8000AEE708E00221382000F03AFD0446092CB6
:101C900020D02046A4E74FF6FF70864213D10221E0
:101CA000382000F02DFD0446092C03D0204697E78C
:101CB00011E05FE00021354800F090FD0446092C5A
:101CC00008D020468CE7FFF749FF0446092C01D0D5
:101CD000204685E756E036B9FFF740FF0446092C59
:101CE00047D020467CE74FF6FF70864208D102219C
:101CF000382000F005FD0446092C3AD020466FE755
:101D0000002522E02248C088224931F81510884277
:101D100001D10FFA85F94D4515D01E4931F815004E
:101D20001D4900F0ADF88046B8F1010F0BD01949FC
:101D300031F815001849098800F0D2F80746092F34
:101D400001D038464CE7681C85B20F2DDADB002144
:101D50000F4800F043FD0446092C01D020463FE720
:101D60000221302000F0CCFC0446092C01D0204692
:101D700036E707E0FFF7F2FE0446092C01D02046C3
:101D80002EE700BF00BF09202AE70000000004087A
:101D900000400408BEC400089E0200202DE9F84F50
:101DA000074689460925DFF8C8A000200090804634
:101DB000002400268346FFF7A5FE8046B8F1010FF8
:101DC00003D100BF382000900AE0B8F1000F04D121
:101DD000DFF8A0A03020009002E0AB20BDE8F88F33
:101DE0004EF6EE61504600F0F9FC0546092D01D093
:101DF0002846F3E74946384600F072F80646092EB1
:101E000001D03046EAE700241CE01B4830F81400FB
:101E1000B84215D0184931F81400184900F030F8CC
:101E20008346BBF1010F0BD0134931F8140013495D
:101E3000098800F055F80646092E01D03046CDE756
:101E4000601C84B20F2CE0DB0221009800F058FCEB
:101E50000546092D01D02846C0E70021504600F074
:101E6000BDFC0546092D01D02846B7E72846B5E751
:101E70000000040800400408BEC400089E020020C0
:101E80002DE9F04706460F46002445F255584FF01D
:101E90000109124DAA460020FFF734FE0446AB2C80
:101EA00001D1BDE8F0870D4800EB444A601C0B49A6
:101EB000891E01EB40450AE0B5F80080B04505D128
:101EC00035F8020C38804FF0000904E02D1F0AF1AC
:101ED00002008542F0D800BF4846E2E7000004084F
:101EE0002DE9F0470646884609270025154CDFF8FE
:101EF00058900120FFF706FE0546AB2D01D1BDE845
:101F0000F087104800EB4544681C0E49891E01EB20
:101F1000404913E02068401C78B94146204600F053
:101F20005DFC0746092F01D03846E8E73146A01C82
:101F300000F054FC07463846E1E7241D4C45E9D340
:101F40008020DCE7000004080000060870B50546A4
:101F50000E46002431462846FFF7C2FF0446802C77
:101F600004D131462846FFF719FF0446204670BDCC
:101F700010B5012000F06EFB00287DD0684A69484A
:101F80000178382000F08EFE66480078401CC1B20F
:101F9000634A521C382000F085FE61484078604951
:101FA000097801F00F0140EA01205D4908815D4890
:101FB0000078801CC1B25A4A921C382000F072FE90
:101FC00058480078C01CC1B2554AD21C382000F0D5
:101FD00069FE5348C0785249897801F00F0140EA00
:101FE00001204F4948814F480078001DC1B24C4A3A
:101FF000121D382000F056FE4A480078401DC1B23C
:10200000474A521D382000F04DFE454800788011A7
:10201000002864D14248C07B58B900204049487329
:10202000012088730020C87309F08CFB3C490861CB
:1020300051E001203A49487300208873C87309F0C1
:1020400081FB37490969401A40F6B831884202D30A
:102050000420354908703548C07848BB33480079BA
:1020600030BB4FF48070324908833048007805282F
:1020700006D101202D4900E04DE00870487008E0CD
:102080002A48007828B901F037FD00202749087058
:10209000487001202549C8700871802025490880B2
:1020A000402008800020244908702449087012E06C
:1020B0001B480089282803DA02201B4908700AE01F
:1020C00017480089502803DD03201749087002E0F3
:1020D00001201549087000201149087018E01048C7
:1020E00000780121B1EBA01F12D100200C494873E8
:1020F00088730120C873087009F024FB0849096936
:10210000401A40F6B831884202D3042006490870CC
:10211000012000F099FA00200949086010BD000074
:10212000E81200204803002034030020D0020020E1
:102130000000024018040240D7020020D60200200E
:10214000BC02002010B54FF4005000F083FA0028C4
:1021500073D0914A91480178382000F05FFC8F4895
:102160000078401CC1B28C4A521C382000F056FC4A
:10217000894840788849097801F00F0140EA012038
:102180008549088185480078801CC1B2824A921C2A
:10219000382000F043FC81480078C01CC1B27E4A60
:1021A000D21C382000F03AFC7B48C0787A49897804
:1021B00001F00F0140EA0120774948817748007813
:1021C000001DC1B2744A121D382000F027FC73486C
:1021D0000078401DC1B2704A521D382000F01EFC2C
:1021E0006D4800788011002874D16B48C07B58B9C5
:1021F000002069494873012088730020C87309F0E2
:10220000A1FA6549086160E0012063494873002034
:102210008873C8736248C07838BB6148007920BBB6
:102220004FF480705F4908835D480078052805D128
:1022300001205B490870487009E05FE05848007869
:1022400028B901F059FC0020554908704870012058
:102250005349C87008718020534908804020088085
:10226000002052490870524908704B4800892828BC
:1022700003DA02204F4948700AE047480089502895
:1022800003DD03204B49487002E0012049494870B2
:1022900009F058FA40490969401A40F6B8318842B5
:1022A00002D30420434948703D48C07868B93C488F
:1022B000007950B901203A4908704870C870087117
:1022C0008020394908804020088000203249087069
:1022D0000DE0FFE7304800780121B1EBA01F06D1E7
:1022E00000202D49487388730120C87308700020AE
:1022F000314908604FF4005000F0A6F94FF48040D7
:1023000000F0A8F900B32648C078C8B9244800797D
:10231000B0B92348007898B909F014FA41F288312D
:1023200088420DD901F0E8FB002023490860012014
:102330001B49C870087180201B4908804020088014
:102340004FF4804000F080F94FF4004000F082F933
:1023500000B31348C078C8B911480079B0B9104823
:10236000007898B909F0EEF941F2883188420DD928
:1023700001F0C2FB00201049086001200849C87024
:102380000871802008490880402008804FF40040F0
:1023900000F05AF910BD0000FC1200204803002094
:1023A000D00200200000024018040240D7020020A2
:1023B000D602002034030020BC02002010B52DED11
:1023C000088B4FF4807000F045F9F0B18F488068B9
:1023D000401C8E49886009F0B5F98C490968401A9B
:1023E000B0F57A7F0CD309F0ADF98849086008464A
:1023F00080680C21B0FBF1F08449486000208860BF
:102400004FF4807000F020F9FCE04FF4007000F011
:1024100021F900287DD04FF400717D4800F094FA36
:1024200020B17C4800687C4908809DE079480068BC
:1024300079494880084640880988884207DD7648FF
:10244000408875490988401A7349888013E07248AA
:1024500040887149098888420ADA6F4800884FF637
:10246000FF71081A6C49498808446B49888002E06A
:10247000C8206949888068488088662802DC662010
:10248000654988806449888809F0D8FD41EC1A0BB9
:102490009FED620B53EC102B09F034FC41EC190B4F
:1024A0009FED600B53EC102B09F0A2FE41EC180BD2
:1024B00009F080FD58490873888809F0BFFD41EC98
:1024C0001B0B9FED560B53EC102B09F01BFC41EC42
:1024D0001A0B9FED540B53EC102B09F089FE41ECC5
:1024E000190B9FED520B53EC102B09F00BFC41EC38
:1024F000180B09F021FB4849886009F029F9464981
:102500000861084690ED020AF2EE040AB4EEE00A11
:1025100000E02EE0F1EE10FA03DD90ED020A80ED0E
:10252000020A44480079012805D143480068401C4C
:102530004149086002E000203F4908603E480068C9
:10254000B0F5967F10D9344890ED020AF3EE090AEF
:10255000B4EEE00AF1EE10FA03DB01213748017115
:1025600002E00021354801714FF4007000F06CF872
:1025700048E0802000F06EF800B32E48C078C8B95B
:102580002C480079B0B92B48007898B909F0DAF8EE
:1025900041F2883188420DD901F0AEFA0020284975
:1025A000086001202349C8700871802025490880EF
:1025B00040200880802000F047F823E0402000F011
:1025C00049F8F8B11B48C078C8B91A480079B0B9C1
:1025D0001848007898B909F0B5F841F28831884276
:1025E0000DD901F089FA0020154908600120114930
:1025F000C87008718020134908804020088040205E
:1026000000F022F8BDEC088B10BD00008412002001
:10261000000802402408004064120020000000006E
:1026200000005940000000000000004000000000D1
:1026300000002440D00200204C030020A002002013
:10264000BC020020180402400149086070470000E5
:10265000143C014001460020034A12680A400AB1B6
:10266000012000E000207047143C01400021234974
:102670008279002A3AD00A46126803689A430B46C8
:102680001A600A1D126803689A430B1D1A600279CA
:1026900011440A6803681A430A60184A083212682B
:1026A00003689A43154B08331A601A1D12680368B1
:1026B0009A43124B0C331A604279102A0ED11A1F1A
:1026C000126803681A430D4B08331A601A1D12680A
:1026D00003681A43094B0C331A600DE0074942792D
:1026E00011440A6803681A430A6005E0027911443C
:1026F0000A6803689A430A6070470000003C014082
:1027000070B504460A460026092502B909E0012AE7
:1027100001D1160205E0022A01D1160201E04FF4B0
:10272000407600F095F80546092D28D11548006837
:1027300020F4407013490860084600683043086080
:102740000846006820F0F80008600846006844F079
:10275000020108430B4908600846006840F48030D5
:10276000086000F075F805460648006820F0020091
:10277000044908600846006820F0F8000860284610
:1027800070BD0000103C024009201349096801F4A3
:102790008031B1F5803F01D101201CE00E4909686C
:1027A00001F0100109B1062015E00B49096801F498
:1027B000807109B102200EE00749096801F0E001CB
:1027C00009B1072007E00449096801F0020109B1D5
:1027D000082000E0092070470C3C024030B502465A
:1027E0000C46092500F034F80546092D19D10E488C
:1027F000006820F440700C4908600846006840F406
:10280000807008600846006840F00100086014808D
:1028100000F01EF805460448006820F00100024957
:102820000860284630BD0000103C024005480068A2
:1028300000F0004028B1044802490C390860034800
:1028400008607047103C024023016745AB89EFCD1B
:1028500008B509200090FFF797FF009002E0FFF70E
:1028600093FF00909DF800000128F8D09DF800002B
:1028700008BDF0B50A4600210023002400BF3DE05A
:10288000012505FA01F3156805EA03049C4234D1D9
:1028900005684F000326BE40B543056015794E001C
:1028A000B5400668354305601579012D02D01579CC
:1028B000022D16D185684F000326BE40B5438560C2
:1028C00055794E00B54086683543856045680126D8
:1028D0008E40B5434560456896798E40B6B2354323
:1028E0004560C5684F000326BE40B543C560D57935
:1028F0004E00B540C6683543C560491C1029BFD39A
:10290000F0BDF0B5002300244D07ED0E02FA05F3EB
:10291000CE1000F1200555F826504E07F70E0F2671
:10292000BE40B543CF1000F1200646F82750CE1028
:1029300000F1200555F8265045EA0304CE1000F1B9
:10294000200545F82640F0BD0246002013690B40E3
:102950000BB1012000E000207047418370470183E4
:1029600070474FF6FF710160002101714171817163
:10297000C17170470AB1018300E0418370470000D4
:1029800010B5012000F06CF80122D1020A48FFF7CF
:10299000F1FF0320FFF78EF8012291020648FFF7AE
:1029A000E9FF0320FFF786F800224FF48061024818
:1029B000FFF7E0FF10BD00000004024070B50024E6
:1029C000002000F04DF80320FFF774F800251FE009
:1029D0006006040E012291020F48FFF7CBFF03208F
:1029E000FFF768F84FF400610B48FFF7ADFF10B137
:1029F00044F0010401E024F0010400224FF480615E
:102A00000548FFF7B7FF0320FFF754F8681CC5B26D
:102A1000082DDDDB204670BD000402402DE9F041A9
:102A200007460C461546002600F038F8702000F0E6
:102A3000ADF800F07DF8204600F0A8F800F078F836
:102A400000F02CF8712000F0A1F8FFF7B7FF064660
:102A5000FFF796FF00F048F82E700120BDE8F081E6
:102A60001CB504464FF40060009034B101208DF88D
:102A7000040000208DF8060005E000208DF8040019
:102A800001208DF8070000208DF8050069460248F6
:102A9000FFF7EFFE1CBD00000004024010B501204E
:102AA000FFF7DEFF0122D1020E48FFF763FF01228C
:102AB00091020C48FFF75EFF0320FEF7FBFF0022A8
:102AC0004FF400610748FFF755FF0320FEF7F2FFC0
:102AD00000224FF480610348FFF74CFF0320FEF70C
:102AE000E9FF10BD0004024010B50120FFF7B8FF58
:102AF0000320FEF7DFFF00224FF480610B48FFF751
:102B000039FF00224FF400610848FFF733FF01222C
:102B100091020648FFF72EFF0320FEF7CBFF0122AC
:102B2000D1020248FFF726FF10BD0000000402405A
:102B300010B50020FFF794FF0122D1021248FFF7E1
:102B400019FF0320FEF7B6FF012291020E48FFF79E
:102B500011FF0320FEF7AEFF4FF400610A48FFF7B4
:102B6000F3FE08B1012400E0002400224FF480614C
:102B70000548FFF7FFFE0320FEF79CFF0CB1012084
:102B800010BD0020FCE700000004024070B50446C0
:102B90000320FEF78FFF0120FFF762FF00252DE0E5
:102BA00004F0800028B10122D1021648FFF7E2FEAE
:102BB00005E000224FF400611248FFF7DBFE03201E
:102BC000FEF778FF012291020E48FFF7D3FE0320A3
:102BD000FEF770FF00224FF480610A48FFF7CAFE3B
:102BE000072D04D10122D1020648FFF7C3FE60067B
:102BF000040E0320FEF75EFF681CC5B2082DCFDB74
:102C000070BD00000004024010B5012000F06CF817
:102C1000012251020A48FFF7ADFE0320FEF74AFFEA
:102C2000012211020648FFF7A5FE0320FEF742FF2E
:102C300000224FF480710248FFF79CFE10BD000097
:102C40000004024070B50024002000F04DF803207D
:102C5000FEF730FF00251FE06006040E012211027E
:102C60000F48FFF787FE0320FEF724FF4FF40071A3
:102C70000B48FFF769FE10B144F0010401E024F0B5
:102C8000010400224FF480710548FFF773FE032012
:102C9000FEF710FF681CC5B2082DDDDB204670BDB5
:102CA000000402402DE9F04107460C461546002677
:102CB00000F038F8702000F0ADF800F07DF8204604
:102CC00000F0A8F800F078F800F02CF8712000F07F
:102CD000A1F8FFF7B7FF0646FFF796FF00F048F8A8
:102CE0002E700120BDE8F0811CB504464FF4007041
:102CF000009034B101208DF8040000208DF806000A
:102D000005E000208DF8040001208DF80700002068
:102D10008DF8050069460248FFF7ABFD1CBD0000B9
:102D20000004024010B50120FFF7DEFF012251022E
:102D30000E48FFF71FFE012211020C48FFF71AFE92
:102D40000320FEF7B7FE00224FF400710748FFF79B
:102D500011FE0320FEF7AEFE00224FF480710348FF
:102D6000FFF708FE0320FEF7A5FE10BD0004024099
:102D700010B50120FFF7B8FF0320FEF79BFE0022ED
:102D80004FF480710B48FFF7F5FD00224FF40071FE
:102D90000848FFF7EFFD012211020648FFF7EAFDA0
:102DA0000320FEF787FE012251020248FFF7E2FDF1
:102DB00010BD00000004024010B50020FFF794FF92
:102DC000012251021248FFF7D5FD0320FEF772FEE3
:102DD000012211020E48FFF7CDFD0320FEF76AFE27
:102DE0004FF400710A48FFF7AFFD08B1012400E07D
:102DF000002400224FF480710548FFF7BBFD03203B
:102E0000FEF758FE0CB1012010BD0020FCE70000C9
:102E10000004024070B504460320FEF74BFE01207B
:102E2000FFF762FF00252DE004F0800028B10122A9
:102E300051021648FFF79EFD05E000224FF4007195
:102E40001248FFF797FD0320FEF734FE012211021E
:102E50000E48FFF78FFD0320FEF72CFE00224FF4F3
:102E600080710A48FFF786FD072D04D10122510227
:102E70000648FFF77FFD6006040E0320FEF71AFEEA
:102E8000681CC5B2082DCFDB70BD000000040240F5
:102E90001CB50121082000F0BDFA4FF400600D4977
:102EA0000880401008806846FFF75BFD03208DF81E
:102EB000050001208DF804008DF806008DF807004C
:102EC0004FF440600090694602481838FFF7D1FC83
:102ED0001CBD0000180C02402DE9F04104460E46CE
:102EE00017464FF00008002020704FF4006024497E
:102EF000088080251FE04FF480602149088005206C
:102F0000FEF7C1FD384600F081F880460A20FEF742
:102F1000BAFD1B480838006800F4006010B1207842
:102F2000284320704FF480601549891C08800520D3
:102F3000FEF7A9FD6D10002DDDDC2EB94FF4006009
:102F40000F49891C088003E04FF400600C49088099
:102F50000520FEF798FD4FF48060094908800A209B
:102F6000FEF791FD4FF480600549891C0880400000
:102F7000891E08801420FEF786FD4046BDE8F081DA
:102F8000180C024010B54FF400600E4908800A206A
:102F9000FEF779FD4FF480600A4908800A20FEF7A9
:102FA00072FD4FF400600749891C08801E20FEF75F
:102FB0006AFD4FF480600349891C08801E20FEF7DB
:102FC00062FD10BD180C024010B54FF480600E4930
:102FD00008800120FEF757FD4FF400600A49088081
:102FE0000120FEF750FD4FF480600749891E0880DC
:102FF0000A20FEF748FD4FF400600349891E08804F
:103000000A20FEF740FD10BD1A0C024070B50446C0
:1030100000250AE0201EA4F10101CCB201D1042058
:1030200070BD4FF47A70FEF72EFD0448006800F47E
:1030300080600028EED02846F2E70000100C024025
:1030400070B50546002680241FE004EA050020B97B
:103050004FF400601B49088004E04FF400601949F8
:10306000891E08800520FEF70EFD4FF4806015498B
:10307000891E08800A20FEF706FD4FF48060114982
:1030800008800520FEF7FFFC6410002CDDDC4FF407
:1030900000600C49891E088040100880C820FEF797
:1030A000F2FC08480A38006800F4006000B101260C
:1030B0004FF48060034908801420FEF7E4FC30469A
:1030C00070BD00001A0C024070B506460022114681
:1030D000304600F03FF8002410E000250BE0AC4241
:1030E00004D90021304600F09FF803E0002130466B
:1030F00000F09AF86D1CF02DF1D3641CCC2CECD3AD
:1031000070BD2DE9F04107460D4614461E46DDF818
:1031100018802A21384600F0D7F82946384600F0B2
:1031200083F8A819411E384600F07EF82B21384656
:1031300000F0CAF82146384600F076F804EB0800A3
:10314000411E384600F070F82C21384600F0BCF8DB
:10315000BDE8F08170B506460C4615462A2130467A
:1031600000F0B2F82112304600F026F8E1B2304605
:1031700000F022F80021304600F01EF8EF21304622
:1031800000F01AF82B21304600F09EF82912304644
:1031900000F012F8E9B2304600F00EF80021304697
:1031A00000F00AF8EF21304600F006F82C213046F6
:1031B00000F08AF870BD000070B505460C46ADB948
:1031C00040201549088300BF0221144800F0BBFBD2
:1031D0000028F9D0A1B2114800F0BEFB00BF0221C7
:1031E0000E4800F0B0FB0028F9D013E020200C4975
:1031F000088300BF02210B4800F0A5FB0028F9D08E
:1032000008490C310C8000BF0221064800F09BFBEE
:103210000028F9D070BD00000000024000300140DD
:10322000001002400034014070B505460C460DBB4D
:1032300040202149088300BF0221204800F083FB81
:103240000028F9D0C4F30F211C4800F085FB00BF13
:1032500002211A4800F077FB0028F9D0E1B21748A4
:1032600000F07AFB00BF0221144800F06CFB00283C
:10327000F9D020E020201249088300BF0221114824
:1032800000F061FB0028F9D0C4F30F200D490C3188
:10329000088000BF02210B4800F055FB0028F9D040
:1032A000E0B208490C31088000BF0221054800F057
:1032B0004AFB0028F9D070BD0000024000300140F8
:1032C000001002400034014070B505460C46C5B9F7
:1032D00040201849488300BF0221174800F033FB03
:1032E0000028F9D0A1B2144800F036FB00BF02213B
:1032F000114800F028FB0028F9D040200D49088330
:1033000016E020200D49488300BF02210C4800F040
:103310001AFB0028F9D00A490C310C8000BF0221A9
:10332000074800F010FB0028F9D02020034908834B
:1033300070BD00000000024000300140001002405B
:103340000034014070B5002100230F22C4781CB363
:10335000174C246804F4E064C4F5E064C4F3072166
:10336000C1F10404E3B20A4144789C40E1B284789C
:10337000144021430C07210E0E4C0578615504784A
:1033800004F01F050124AC4005786D11AD0005F176
:10339000E025C5F8004109E0047804F01F05012488
:1033A000AC40054D0678761145F8264070BD00000A
:1033B0000CED00E000E400E080E100E002490143A0
:1033C000024A1160704700000000FA050CED00E0B1
:1033D00010B5024600200D4B186840F60343984391
:1033E00010430A4B18600A4B1B6843F00403084C57
:1033F0002360012901D130BF00E020BF044B1B68CE
:1034000023F00403024C236010BD00000070004054
:1034100010ED00E029B1064A12680243044B1A601D
:1034200004E0034A12688243014B1A6070470000AF
:103430003038024029B1064A12680243044B1A6030
:1034400004E0034A12688243014B1A60704700008F
:103450004038024029B1064A12680243044B1A6000
:1034600004E0034A12688243014B1A60704700006F
:103470002038024029B1064A12680243044B1A6000
:1034800004E0034A12688243014B1A60704700004F
:103490004438024029B1064A12680243044B1A60BC
:1034A00004E0034A12688243014B1A60704700002F
:1034B00024380240F0B50021002200240225002615
:1034C0000223324F3F6807F00C0121B1042905D0D7
:1034D000082937D105E02E4F076036E02D4F0760F1
:1034E00033E02A4F3F1F3F68C7F38056274F3F1FE7
:1034F0003F6807F03F036EB1264FB7FBF3F7DFF8E5
:103500008CC0ACF1040CDCF800C0CCF3881C07FBC9
:103510000CF40CE01E4FB7FBF3F7DFF870C0ACF112
:10352000040CDCF800C0CCF3881C07FB0CF4174F2C
:103530003F1F3F68C7F301477F1C7D00B4FBF5F7D1
:10354000076002E0124F076000BF00BF0F4F3F68E7
:1035500007F0F0010909104F7A5C0768D74047600F
:103560000A4F3F6807F4E051890A0B4F7A5C4768BD
:10357000D7408760054F3F6807F46041490B064F0D
:103580007A5C4768D740C760F0BD00000838024049
:103590000024F40080BA8C016D03002030B502468F
:1035A0000B46FF20002113E0555C684008240BE027
:1035B00000F0800525B1312585EA4005E8B201E03B
:1035C0004506280E651EECB2002CF1DC4D1CE9B25C
:1035D0009942E9DB30BD000000EE100AB8EE400A67
:1035E000DFED040A60EE200A9FED031A80EE810AE7
:1035F000704700000000D24200FF7F4700EE100A33
:10360000B8EE400ADFED060A20EE200ADFED050ADB
:1036100080EE201A9FED040A31EE400A7047000048
:1036200000002F4300FF7F47000034422DE9F041A6
:1036300005460E46144631462846FFF7AFFF0746BB
:10364000A74202D00220BDE8F0810020FBE7000085
:1036500010B50446FFF71CFC204600F063F84FF459
:1036600080500149088010BD180402402DE9FC413A
:1036700005460E4617463A46002101A8FFF72CFCE6
:10368000044634B9002211460DF10500FFF724FC71
:1036900004462CB9002231466846FFF71DFC04465B
:1036A00034B99DF80020022101A8FFF7BFFF0446AE
:1036B0009DF805009DF8041040EA0120288020466E
:1036C000BDE8FC817CB505460E4600F0E9F80446ED
:1036D00024B94FF4604000F0F5F8044614B900F046
:1036E000CFF804462CB90022114601A8FFF7BEFF0F
:1036F00004462CB9002201216846FFF7B7FF0446B3
:103700005CB9BDF80400FFF779FF85ED000ABDF84C
:103710000000FFF761FF86ED000A00F0CFF82046B9
:103720007CBD000001490870704700006C03002058
:1037300010B500F0B5F8044643F2A20000F0C2F85C
:10374000044300F0BBF81CB94CF25030FEF79BF973
:10375000204610BD70B506460D4600F0A1F804469F
:10376000002C72D1002E57D0012E2BD0022E7FD1EB
:10377000052D22D2DFE805F003090F151B0042F2E8
:103780002F0000F09FF804431AE042F22D1000F0E1
:1037900099F8044314E042F22B2000F093F804431C
:1037A0000EE042F2293000F08DF8044308E042F2C6
:1037B0002A7000F087F8044302E044F0800400BF60
:1037C00000BF58E0052D22D2DFE805F003090F15F0
:1037D0001B0042F2240000F075F804431AE042F2A4
:1037E000261000F06FF8044314E042F2202000F0AD
:1037F00069F804430EE042F2223000F063F804431B
:1038000008E042F2217000F05DF8044302E044F069
:10381000800400BF00BF2EE0052D24D2DFE805F0B4
:1038200003090F171D0042F2320000F04BF8044369
:103830001CE042F2301000F045F8044316E042F27A
:10384000362000F03FF8044310E015E010E042F2AB
:10385000343000F037F8044308E042F2377000F0EB
:1038600031F8044302E044F0800400BF00BF02E0EE
:1038700044F0800400BF00BF00F020F8204670BD77
:1038800010B5FFF77FFB05490978012202EB4101E2
:10389000C8B2FFF7D5FB0446204610BD6C030020DC
:1038A00010B5FFF76FFB044909784906080EFFF7CA
:1038B000C7FB0446204610BD6C03002010B5FFF77F
:1038C00083FB10BD70B504462012FFF7B9FB054617
:1038D000E0B2FFF7B5FB0543284670BD38B5054695
:1038E000FFF7DEFF04464FF45E50FFF7EBFF0443A3
:1038F00014B9FFF7C5FF04462CB9642200216846BD
:10390000FFF7B4FE044634B9002201210DF1020094
:10391000FFF7ACFE0446FFF7D1FF34B9BDF8020053
:10392000BDF8001040EA01402860204638BD21B1B2
:10393000028842F04002028004E002884FF6BF7322
:103940001A40028070470246002013890B400BB1D9
:10395000012000E0002070478181704710B50022EF
:10396000028802F441520B884C8823438C882343FD
:10397000CC8823430C8923434C8923438C892343DC
:10398000CC8923431A430280838B4FF2FF74234078
:1039900083830B8A038210BD30B500228B071C0F76
:1039A0000F2303FA04F20B4B8C1053F8243093438B
:1039B000084C8D1044F8253023468C1053F82430E1
:1039C0008C07240F00FA04F42343024C8D1044F8B2
:1039D000253030BD083801400CB500200190009022
:1039E0004148006840F480303F49086000BF3E48CD
:1039F000006800F4003000900198401C019000988D
:103A000018B90198B0F5A04FF1D13748006800F41B
:103A1000003010B10120009001E0002000900098DB
:103A2000012860D130484030006840F080502E4975
:103A3000403108602D48006840F440402B49086040
:103A4000294808300068284908310860084600689D
:103A500040F4004008600846006840F4A050086048
:103A60002348091F0860081F006840F08070091F84
:103A7000086000BF1C48006800F000700028F9D002
:103A80001A48006840F480301849086000BF1748A1
:103A9000406800F480300028F9D01448006840F4F1
:103AA00000301249086000BF1048406800F4003040
:103AB0000028F9D040F205700E4908600A48083025
:103AC000006820F0030008490831086008460068D3
:103AD00040F00200086000BF03480830006800F0B2
:103AE0000C000828F8D10CBD0038024000700040DE
:103AF0001A544007003C024010B51548006840F4D5
:103B00007000134908601348006840F00100114933
:103B1000086000200F49083108600E4800680E490F
:103B200008400C4908600D48091D0860081F00681E
:103B300020F48020091F0860002006490C3108602D
:103B4000FFF74AFF4FF0006001498039086010BD5F
:103B500088ED00E000380240FFFFF6FE1030002440
:103B600021B1028842F08002028004E002884FF610
:103B70007F731A400280704721B1028842F001022F
:103B8000028004E002884FF6FE731A4002807047FC
:103B900010B504465548844208D101210846FFF774
:103BA00079FC00210120FFF775FC9DE0B4F1804F06
:103BB00008D101210846FFF74DFC00210120FFF745
:103BC00049FC91E04A48844208D101210220FFF7D4
:103BD00041FC00210220FFF73DFC85E0454884427E
:103BE00008D101210420FFF735FC00210420FFF754
:103BF00031FC79E04048844208D101210820FFF7D8
:103C000029FC00210820FFF725FC6DE03B48844299
:103C100008D101211020FFF71DFC00211020FFF723
:103C200019FC61E03648844208D101212020FFF7C9
:103C300011FC00212020FFF70DFC55E031488442A3
:103C400008D101210220FFF725FC00210220FFF707
:103C500021FC49E02C48844209D101210804FFF7E6
:103C600019FC00214FF48030FFF714FC3CE027489A
:103C7000844209D101214804FFF70CFC00214FF4D4
:103C80000030FFF707FC2FE02148844209D10121D1
:103C90008804FFF7FFFB00214FF48020FFF7FAFBB9
:103CA00022E01C48844208D101214020FFF7D2FBCA
:103CB00000214020FFF7CEFB16E01748844208D1D0
:103CC00001218020FFF7C6FB00218020FFF7C2FB07
:103CD0000AE01248844207D101218015FFF7BAFBA0
:103CE0000021A015FFF7B6FB10BD00000000014049
:103CF0000004004000080040000C0040001000409C
:103D00000014004000040140004001400044014014
:103D10000048014000180040001C00400020004006
:103D200070B5002400220023058C4FF6FE76354046
:103D30000584028C8388048B4FF68F752C40B51E4A
:103D40002C400D882C43751E2A408D892A434D88AE
:103D50002A43104DA84202D00F4DA84213D14FF66E
:103D6000F7752A40CD892A434FF6FB752A408D8886
:103D70002A434FF6FF652B404FF6FF552B400D8A27
:103D80002B434D8A2B43838004838D6845630284D3
:103D900070BD000000000140000401400A460021FF
:103DA000018B4FF6F77319401143018370470000F0
:103DB00070B5002400220023058C4FF6EF763540C5
:103DC0000584028C8388048B48F6FF752C404FF6DF
:103DD000FF452C400D884FF6FF7606EA05252C435B
:103DE0004FF6DF752A408D8906EA05152A434D886E
:103DF00006EA05152A43154DA84202D0144DA842E3
:103E00001DD14FF67F752A40CD894FF6FF7606EA21
:103E100005152A434FF6BF752A408D8806EA051519
:103E20002A434FF6FF352B404FF2FF752B400D8A8A
:103E300006EA85052B434D8A06EA85052B438380D8
:103E400004838D688563028470BD0000000001401A
:103E5000000401400A460021018B4FF2FF73194014
:103E60004FF6FF7303EA02231943018370470000F2
:103E700000220288184B98420ED0184B98420BD063
:103E8000B0F1804F08D0164B984205D0154B9842A0
:103E900002D0154B984204D14FF68F731A404B88CD
:103EA0001A43124B984207D0114B984204D04FF658
:103EB000FF431A400B891A4302804B68C3620B8888
:103EC0000385054B984202D0044B984201D18B7A6E
:103ED00003860123838270470000014000040140F3
:103EE0000004004000080040000C004000100040AA
:103EF0000014004070B518480468206B058805F070
:103F0000200060B1206B8088D4E908128854606A70
:103F1000401CE169B0FBF1F201FB1200606205F0A8
:103F20008000B8B1A069616988420DD0A16920699B
:103F3000405C216B8880A069401CE168B0FBF1F215
:103F400001FB1200A06105E0002240F22771206B06
:103F500000F01DF970BD00005C03002070B518482A
:103F60000468206B058805F0200060B1206B808814
:103F7000D4E908128854606A401CE169B0FBF1F290
:103F800001FB1200606205F08000B8B1A0696169B0
:103F900088420DD0A1692069405C216B8880A069AE
:103FA000401CE168B0FBF1F201FB1200A06105E0EA
:103FB000002240F22771206B00F0E9F870BD00008C
:103FC0006003002070B518480468206B058805F070
:103FD000200060B1206B8088D4E908128854606AA0
:103FE000401CE169B0FBF1F201FB1200606205F0D8
:103FF0008000B8B1A069616988420DD0A1692069CB
:10400000405C216B8880A069401CE168B0FBF1F244
:1040100001FB1200A06105E0002240F22771206B35
:1040200000F0B5F870BD00005003002070B51848CE
:104030000468206B058805F0200060B1206B808843
:10404000D4E908128854606A401CE169B0FBF1F2BF
:1040500001FB1200606205F08000B8B1A0696169DF
:1040600088420DD0A1692069405C216B8880A069DD
:10407000401CE168B0FBF1F201FB1200A06105E019
:10408000002240F22771206B00F081F870BD000023
:104090005403002070B518480468206B058805F0AB
:1040A000200060B1206B8088D4E908128854606ACF
:1040B000401CE169B0FBF1F201FB1200606205F007
:1040C0008000B8B1A069616988420DD0A1692069FA
:1040D000405C216B8880A069401CE168B0FBF1F274
:1040E00001FB1200A06105E0002240F22771206B65
:1040F00000F04DF870BD00005803002070B518485E
:104100000468206B058805F0200060B1206B808872
:10411000D4E908128854606A401CE169B0FBF1F2EE
:1041200001FB1200606205F08000B8B1A06961690E
:1041300088420DD0A1692069405C216B8880A0690C
:10414000401CE168B0FBF1F201FB1200A06105E048
:10415000002240F22771206B00F019F870BD0000BA
:104160006403002021B1828942F40052828104E07C
:1041700082894DF6FF731A40828170471AB1838A93
:104180000B43838202E0838A8B4383827047F0B5BE
:104190000346002400260025002040F66A17B94295
:1041A00000D100BF1846C1F3421401F01F060127D9
:1041B00007FA06F5012C01D10C3004E0022C01D1E4
:1041C000103000E014301AB107682F43076002E096
:1041D0000768AF430760F0BD2DE9FF4705460E466F
:1041E0000024A14600BFA046B08900B100BF2C8AC0
:1041F00024F44054F08804432C82AC8941F20C60D2
:104200008443B08831890843718908430443AC81F1
:10421000AC8A24F44074B0890443AC826846FFF74A
:1042200049F92048854202D01F48854202D1DDF875
:104230000C9001E0DDF80890A88900F4004040B13E
:1042400009EBC90000EB091031684900B0FBF1F738
:1042500007E009EBC90000EB091031688900B0FBE9
:10426000F1F76420B7FBF0F004012009642101FBA1
:104270001078A88900F4004040B1322000EBC8005B
:10428000B0FBF1F000F00700044308E0322000EB3F
:1042900008106421B0FBF1F000F00F0004432C8102
:1042A000BDE8FF87001001400014014021B1828960
:1042B00042F40042828103E08289C2F30E028281CD
:1042C00070474FF41651016000218180C180018147
:1042D0000C21418100218181704703B40198410084
:1042E000009850EAC12018BF04204A0D18BF40F0C2
:1042F000010040F2FF72B2EB515F08BF40F00200D4
:10430000012808BF052002B070472DED020B01986F
:1043100020F0004001909DED000B02B07047303856
:104320000A2801D201207047002070472DE9F04192
:1043300004460D4616461F46DDF8188094F84C00DA
:1043400080B9012084F84C002765C4F85480A06B24
:10435000C560A06B46600121A06BFDF77BFA0120D0
:10436000BDE8F0810020FBE72DED068B8CB007F057
:10437000E9F90B900025FA48D0F8008000BF4FF40F
:104380008051F848FEF7E9FA40F6B83006F04AFCEA
:104390004FF48051F348FEF7E2FA40F6B83006F0E9
:1043A00041FC00254FF48071EF48FCF7E9F90FE07C
:1043B00007F0C8F9EA49886007F0C4F9E849C8601D
:1043C000404605F0ABF929466A1CD5B2E64A50547E
:1043D000404605F089F80028EAD100254FF48071A5
:1043E000E148FCF7CDF9E1A001F0A6FD42F2107022
:1043F00006F018FC0FE007F0A5F9D949886007F02E
:10440000A1F9D749C860404605F088F929466A1CD9
:10441000D5B2D54A5054404605F066F80028EAD196
:1044200000254FF48071D048FCF7AAF9D2A001F022
:1044300083FD4FF47A7006F0F5FB0FE007F082F988
:10444000C749886007F07EF9C549C860404605F055
:1044500065F929466A1CD5B2C34A5054404605F056
:1044600043F80028EAD14FF48071BF48FCF788F97F
:10447000C3A001F061FDC6A001F05EFD00254FF470
:104480008071B948FCF77CF9C6A001F055FD4FF4E6
:104490007A7006F0C7FB0FE007F054F9B049886066
:1044A00007F050F9AE49C860404605F037F9294693
:1044B0006A1CD5B2AC4A5054404605F015F80028A5
:1044C000EAD1BBA001F038FD4FF47A7006F0AAFBE8
:1044D00000254FF48071A448FCF752F9BC4801F064
:1044E0002BFD4FF47A7006F09DFB0FE007F02AF9E0
:1044F0009B49886007F026F99949C860404605F055
:104500000DF929466A1CD5B2974A5054404604F02A
:10451000EBFF0028EAD1AFA001F00EFD4FF47A7056
:1045200006F080FB00254FF480718F48FCF728F9D6
:10453000ACA001F001FD4FF4FA6006F073FB0FE050
:1045400007F000F98649886007F0FCF88449C860E4
:10455000404605F0E3F829466A1CD5B2824A505419
:10456000404604F0C1FF0028EAD17F4890F8860059
:10457000302804D17C4890F88800302800D0FEE62E
:10458000A7A001F0D9FC4FF47A7006F04BFBA8A06D
:1045900001F0D2FC4FF47A7006F044FB00254FF492
:1045A00080717148FCF7ECF8A5A001F0C5FC4FF450
:1045B0007A7006F037FB0FE007F0C4F868498860AE
:1045C00007F0C0F86649C860404605F0A7F82946DC
:1045D0006A1CD5B2644A5054404604F085FF002856
:1045E000EAD19FA16048FBF7F9FF00B1C7E69EA0A2
:1045F00001F0A2FC4FF47A7006F014FB00254FF492
:1046000080715948FCF7BCF89B4801F095FC4FF4C9
:104610007A7006F007FB0FE007F094F850498860C5
:1046200007F090F84E49C860404605F077F82946F3
:104630006A1CD5B24C4A5054404604F055FF00283D
:10464000EAD187A14848FBF7C9FF00B197E64FF4CC
:1046500080714548FCF794F8002500BF07F072F818
:104660003F490969401A42F21071884276D907F031
:1046700069F83B4908618148007810B90026002795
:1046800000E001267D480078022801D100270AE0D9
:104690007A480078052801D1022704E0774800789D
:1046A000012800D101274FF400712F48FCF768F86A
:1046B00000257348007B10B90120714908737148C7
:1046C000006807F07FFE41EC180B6F4890ED020A7E
:1046D00010EE101A084607F075FE41EC190B6B48F6
:1046E00090ED020A10EE101A084607F06BFE41EC3E
:1046F0001A0B674801686248007B08AA83C28DEDE7
:10470000068B6448C08ACDE904608DED029B624847
:1047100090ED000ABCEEC00A10EE100AC0B253ECD5
:104720001A2B5E4900905E48FBF73EFE5C48FBF7A3
:1047300067FF5C4908805C4801F0FEFB5848FBF7C6
:104740005FFF84B22146564801F004FC5748FBF74E
:1047500057FF84B22146554801F0FCFBBBE0000046
:10476000F4030020000C02409C0A002041542B4E10
:1047700052420D0A0000000041540D0A00000000E2
:1047800041542B4350534D533D300D0A000000005F
:1047900041542B5153434C4B3D30222C302C302C68
:1047A000310D0A0041542B4353510D0A0000000003
:1047B00041542B514D544346473D22726563762F39
:1047C0006D6F6465222C302C302C310D0A000000F6
:1047D000B02A010841542B514D544F50454E3D3F96
:1047E0000D0A000041542B514D544F50454E3D3061
:1047F0002C22696F742D61732D6D7174742E636E2C
:104800002D7368616E676861692E616C6979756E78
:1048100063732E636F6D222C313838330D0A00001C
:1048200041542B514D544F50454E3F0D0A0000004E
:1048300041542B514D54434F4E4E3D3F0D0A000005
:1048400041542B514D54434F4E4E3D302C22636CFE
:1048500069656E744578616D706C65220D0A0000A3
:104860004552524F5200000041542B514D54535564
:10487000423D3F0D0A000000682B0108D0020020D5
:10488000841200202403002044120020641200201F
:10489000E4020020EC11002028030020C02B0108B6
:1048A0000C0500209C020020102B0108950200201E
:1048B00006F048FFCE49886006F044FFCC49C86046
:1048C000404604F02BFF29466A1CD5B2C94A505411
:1048D0000120C9490870404604F006FE0028E7D1CF
:1048E00006F030FFC2498968401A64287ED9C24860
:1048F000007801287AD106F025FFBD4988600020A4
:10490000BD49087000BFBDA1BA48FBF767FE044669
:104910007CB3B848201ABC490870084600780B30B0
:10492000BA490870B3480978405CB9490870B14881
:10493000B6490978405C3038052821D2DFE800F01C
:1049400003070D131A000120B249087719E001206E
:10495000B04908730020087713E00220AD490873BE
:10496000002008770DE00320AA490873002008778B
:1049700007E007E00420A74908730020087700E05B
:1049800000BF00BF9B4CA4A12046FBF727FE0446B6
:104990001CB19848201A9C490870964CA2A1204648
:1049A000FBF71CFE04461CB19248201A9649087079
:1049B000904CA2A12046FBF711FE04461CB18D4885
:1049C000201A914908708B4C9EA12046FBF706FEE9
:1049D00004461CB18748201A8B490870854C9FA15A
:1049E0002046FBF7FBFD04462CB100E0FAE08148CD
:1049F000201A854908707F4C9AA12046FBF7EEFDEE
:104A00000446002C68D07B48201A7F4908707949F9
:104A10007D4800780A30085C302804D031282AD03C
:104A2000322857D152E09248007805281CD1012045
:104A30008F49487000208F49087029210120FEF716
:104A400043FC4FF0FF307349086201208849087128
:104A500000028949088301208549C87008718020B7
:104A600086490880402008808148007810B10120E4
:104A7000684908772FE07E48007805281FD101207B
:104A80007B49487000207B49087029210120FEF7EE
:104A90001BFC4FF0FF305F49086201207449087128
:104AA00000027549088301207149C870087180208F
:104AB000724908804020088001206D4908706C48C8
:104AC000007810B100205349087704E005206849B8
:104AD000087000E000BF00BF464C69A12046FBF70C
:104AE0007DFD04461CB14348201A47490870414CDB
:104AF00065A12046FBF772FD04461CB13D48201A13
:104B0000414908703B4C60A12046FBF767FD044615
:104B10001CB13848201A3C490870364C5DA120462B
:104B2000FBF75CFD0446ECB33248201A36490870A6
:104B30003049354800780D30085C302802D03128E3
:104B40003CD117E00120FEF7BFFA4948007880B158
:104B50000020474908704870514908602821012009
:104B6000FEF7B2FB00202B490862414908714D490C
:104B7000086024E03E480078F8B901203C490870FC
:104B8000487000203B49087029210120FEF79CFB5A
:104B90004FF0FF301F4908620120354908710002BB
:104BA000354900E00CE0088301203149C8700871E4
:104BB0008020324908804020088000E000BF00BF0C
:104BC0000C4C39A12046FBF709FD04461CB10948ED
:104BD000201A0D4908704FF480710648FBF7D0FD8C
:104BE000002500BF0A210BA806F036F836E50000C4
:104BF000F40300209C0A00209402002057696E6490
:104C00005370656564000000970200209802002040
:104C1000990200208412002043757272656E7448F8
:104C2000756D69646974790043757272656E745448
:104C3000656D706572617475726500004843484F18
:104C40000000000046696C7465724C6966655469C1
:104C50006D6550657263656E745F310054564F43E5
:104C600000000000576F726B4D6F6465000000001C
:104C7000D0020020D70200200000024018040240A9
:104C8000504D323500000000504D32354C65766590
:104C90006C000000506F7765725377697463680029
:104CA00038040040BC0200204572726F72000000A0
:104CB00010B5044606F09EF903F0A6FBFDF7B6FD1D
:104CC000FCF76AFF03F09CFB04F0DAFB05F02CFD17
:104CD00001F00CF905F012FC05F06CFE002005F067
:104CE000F5FF10BD08B506F02DFD009000BF04F0E3
:104CF000C9FB05F01FFD01F0A3FD03F047F9B4481F
:104D0000007808B901F0D0FAB148007800287AD0CC
:104D100004F0E0FB01F0E4F9AE48407F30B94FF019
:104D2000FF30AC4908620020486222E0A948006ACE
:104D30000A281AD9A748006A0A38A649086208460C
:104D4000006AA549B0FBF1F0401CA249496A8842BB
:104D50000FD0A048006AA049B0FBF1F0401C9D496B
:104D6000486201209A49487103E00020994908628D
:104D700048629848006AA8B90020954908704870B0
:104D8000C87008719FED950A924880ED050A90ED74
:104D9000050ABCEEC00A10EE100A91490860012015
:104DA000FEF792F98B4890ED050AB5EEC00AF1EED8
:104DB00010FA6EDD007B012809D18A4890ED010AC6
:104DC000DFED890A30EE200A80ED010A29E08148F2
:104DD000007B022809D1834890ED010ADFED830AA8
:104DE00030EE200A80ED010A1BE07A48007B0328A0
:104DF0000AD17C4890ED010AF7EE000A30EE200A55
:104E000080ED010A0DE084E07248007B042808D19F
:104E1000744890ED010ADFED760A30EE200A80ED4D
:104E2000010A704890ED010ADFED720AB4EEE00A63
:104E3000F1EE10FA2DDB9FED690A80ED010A008981
:104E4000401C684908810846018945F25550FDF724
:104E50007DF864480089011445F25650FDF776F854
:104E6000604800891B2190FBF1F0C0F164006249A9
:104E7000086008460068002801DA002007E05E4864
:104E80000068642801DD642001E05B4800685A493D
:104E900008604F480078052824D106F053FC574994
:104EA0000968401A40F6B831884222D34D4800784C
:104EB00001281ED100204649C8700871504800687A
:104EC00038B901204E490860FEF7FEF80020FEF7D1
:104ED000FBF800204B4908709FED4B0A3D4880EDE0
:104EE000050A06E000204649086006F02BFC43490D
:104EF00008603748007802280CD106F023FC4349AB
:104F00000968401A40F6B831884207D30120314978
:104F1000087703E006F016FC3C4908602C4800784E
:104F200070BB3B480068401C39490860084600686F
:104F3000B0F5FA7F27D32B480078012823D19FEDC5
:104F4000270A244880ED050A00202149C87008710D
:104F50008020304908804020088080002E49488306
:104F60002B480068B0F5FA7F0DD106F0EBFB41F25B
:104F70008831884207D901210846FEF729FA02E064
:104F80000020234908601348007F2449097888429B
:104F900005D11048007B22490978884213D00D487A
:104FA000007F1E4908700B48007B1D4908701B4894
:104FB000017845F25750FCF7C9FF1948017845F2CE
:104FC0005850FCF7C3FF0A21684605F045FE8EE6FF
:104FD000D00200208412002080EE36000000000085
:104FE00038040040DC1100209A99193FCDCC4C3F89
:104FF0009A99993F00C8AF48E4020020B40200200B
:10500000C0020020D70200200000F042B8020020B9
:10501000BC0200201A04024000000240C802002026
:10502000C902002002F086F800BFC82005F0FAFD92
:105030007D488178C07801447B480079084410B1EC
:1050400001207A4988707948007802280CD1784884
:10505000007B78490978884206D07548007B7549FD
:1050600008700120714948717048C07808B306F093
:1050700069FB71494968401AB0F5FA7F1BD36B4848
:1050800000786E490978884208D0684800786B49F2
:1050900008706649087802F071FB0CE063484079BB
:1050A000012808D1002061494871087802F000FC0D
:1050B00001E002F0EDFB5D480079002875D05B4807
:1050C0008078002878D058488178C07801445648C4
:1050D0000079084400286BD006F034FB5849096871
:1050E000401A40F6B83188429FD906F02BFB54494C
:1050F00008604E484078012817D14B488078012835
:1051000003D10220494948704AE04748C078012845
:1051100003D103204549487042E043480079012803
:105120003ED10620414948703AE040484078022884
:105130000FD13D48C078012803D103203B49487076
:105140002EE03948007901282AD1062037494870D5
:1051500026E03648407803280FD1334800790128EB
:1051600003D10620314948701AE02F488078012881
:1051700016D102202D49487012E02C4840780628AC
:105180000ED129488078012803D102202749487090
:1051900006E02548C078012802D103202349487041
:1051A0002249487804F024F83FE739E004E0FFE7BB
:1051B00000201E49887038E706F0C4FA1E49896845
:1051C000401AB0F5FA7FEFD9184840781D490978A0
:1051D00088420ED01549487804F00AF81348407800
:1051E0001849087006F0AEFA00F57A7014490860A4
:1051F0001BE706F0A7FA124909688842D4D906F0DD
:10520000A1FA0F490968401AB0F57A7FCCD906F0A7
:1052100099FA0B4908600549487804F093F804E7C7
:1052200004F088F801E70000A0020020D00200206E
:1052300084120020D802002078120020D60200201C
:1052400014030020D70200203EB50120FDF73CFFEB
:10525000002440F2FF712822B74800880123CDE9DD
:10526000012100903C227821184602F05EF80020CF
:10527000B2494FF6FF738C22CDE900103021012096
:1052800000F0FFFC0120AD494FF6FF738C22CDE901
:105290000010402100F0F5FC0220A8494FF6FF73F2
:1052A0008C22CDE900105021012000F0EAFC0320FF
:1052B000A2494FF6FF738C22CDE900106021012036
:1052C00000F0DFFC9E4890ED020ADFED9E0AB4EE8E
:1052D000E00AF1EE10FA2AD89B4890ED030ADFEDC0
:1052E0009B0AB4EEE00AF1EE10FA20D8984890ED4F
:1052F000020ADFED980AB4EEE00AF1EE10FA16D8D1
:1053000004208E494FF6FF738C22CDE900109621C0
:10531000012000F0B6FC052088494FF6FF738C226F
:10532000CDE90010A621012000F0ABFCABE08448E1
:1053300090ED020ADFED880AB4EEE00AF1EE10FA11
:105340002AD8814890ED030ADFED840AB4EEE00A22
:10535000F1EE10FA20D87E4890ED020AF0EE080A2D
:10536000B4EEE00AF1EE10FA16D8062073494FF6B3
:10537000FF738C22CDE900109621012000F081FC02
:1053800007206E494FF6FF738C22CDE90010A6214D
:10539000012000F076FC76E0694890ED020ADFED2E
:1053A000700AB4EEE00AF1EE10FA40D8664890EDCB
:1053B000030ADFED6C0AB4EEE00AF1EE10FA36D81B
:1053C000634890ED020AF3EE090AB4EEE00AF1EE4A
:1053D00010FA2CD8082059494FF6FF738C22CDE9DA
:1053E00000109621012000F04CFC0B2053494FF691
:1053F000FF738C22CDE90010A621012000F041FCB2
:105400000D204E494FF6FF738C22CDE90010B621D6
:10541000012000F036FC0E2048494FF6FF738C2225
:10542000CDE90010C621012000F02BFC2BE00A2062
:1054300042494FF6FF738C22CDE9001096210120DE
:1054400000F01FFC0B203D494FF6FF738C22CDE985
:105450000010A621012000F014FC0D2037494FF662
:10546000FF738C22CDE90010B621012000F009FC69
:105470000E2032494FF6FF738C22CDE90010C62171
:10548000012000F0FEFB4FF6FF7010210A22364B80
:10549000CDE900210290AA223221012001F002FF71
:1054A0004FF6FF7010210A22304BCDE90021029007
:1054B000AA228C21012001F0F5FE4FF6FF702C4945
:1054C000CDE900102B4890ED000ABDEEC00A10EEA9
:1054D000103AAA223C21012002F07CF804464FF643
:1054E000FF7010211222244BCDE900210290AA2244
:1054F0002146012001F0D6FE4FF6FF701C49CDE990
:1055000000101E4890ED000ABDEEC00A10EE103AE1
:10551000AA229621012002F05DF804464FF6FF70A2
:1055200010211222164BCDE900210290AA22214619
:10553000012001F0B7FE3EBDA0020020EADB00081A
:10554000441200200AD7233DEC11002000000C4239
:10555000641200209A99193F0AD7A33D0000964291
:10556000CDCC4C3E0000E642CADD0008EADD000872
:10557000EC030020240300200ADE0008280300209A
:105580003ADE00083EB50024D04800880A2803DA35
:105590000020CF4908700FE0CC480088642803DA67
:1055A0000120CB49087007E0C8480088B0F57A7F31
:1055B00002DA0220C6490870C4480088C549098833
:1055C000884227D0C1480088C2490880C048007876
:1055D000C149097888420FD000203C21A022BF4B4E
:1055E000CDE9002102900A462821012001F05AFE4F
:1055F000B7480078B849087040F2FF712822B348D4
:1056000000880123CDE9012100903C227821184631
:1056100001F08BFEB24890ED030AB248D0ED000ACB
:10562000B4EE600AF1EE10FA45D0AD4890ED030AF1
:10563000AC4880ED000A002010214022A74BCDE9A4
:10564000002102908C229621012001F02BFEA64819
:1056500090ED020ADFEDA50AB4EEE00AF1EE10FAD1
:105660002AD89F4890ED030ADFEDA10AB4EEE00AC4
:10567000F1EE10FA20D89F4890ED020ADFED9E0A65
:10568000B4EEE00AF1EE10FA16D804209B494FF66A
:10569000FF738C22CDE900109621012000F0F1FA71
:1056A000052096494FF6FF738C22CDE90010A62104
:1056B000012000F0E6FAABE08B4890ED020ADFED46
:1056C000900AB4EEE00AF1EE10FA2AD8844890ED80
:1056D000030ADFED8C0AB4EEE00AF1EE10FA20D8EE
:1056E000844890ED020AF0EE080AB4EEE00AF1EE0A
:1056F00010FA16D8062081494FF6FF738C22CDE9A7
:1057000000109621012000F0BCFA07207B494FF6DB
:10571000FF738C22CDE90010A621012000F0B1FA20
:1057200076E0714890ED020ADFED770AB4EEE00A08
:10573000F1EE10FA40D86A4890ED030ADFED730AE3
:10574000B4EEE00AF1EE10FA36D86A4890ED020A9B
:10575000F3EE090AB4EEE00AF1EE10FA2CD80820B4
:1057600066494FF6FF738C22CDE900109621012087
:1057700000F087FA0B2061494FF6FF738C22CDE9C8
:105780000010A621012000F07CFA0D205B494FF6A5
:10579000FF738C22CDE90010B621012000F071FAD0
:1057A0000E2056494FF6FF738C22CDE90010C6211A
:1057B000012000F066FA2BE00A2050494FF6FF73F3
:1057C0008C22CDE900109621012000F05AFA0B201E
:1057D0004A494FF6FF738C22CDE90010A621012023
:1057E00000F04FFA0D2045494FF6FF738C22CDE9AA
:1057F0000010B621012000F044FA0E203F494FF678
:10580000FF738C22CDE90010C621012000F039FA87
:105810003F4890ED000A3F48D0ED000AB4EE600A20
:10582000F1EE10FA22D090ED000A394880ED000A1E
:10583000002014210E22294BCDE900210290AA223A
:105840003C21012001F02EFD4FF6FF703249CDE9D9
:105850000010304890ED000ABDEEC00A10EE103A7C
:10586000AA223C21012001F0B5FE04462B4890ED10
:10587000000A2B48D0ED000AB4EE600AF1EE10FAEF
:1058800022D090ED000A254880ED000A0020142166
:105890000E22124BCDE900210290AA22962101206E
:1058A00001F000FD4FF6FF701B49CDE900101C48C8
:1058B00090ED000ABDEEC00A10EE103AAA22962121
:1058C000012001F087FE04463EBD0000A00200203A
:1058D000F8020020E8020020F9020020DCC40008E1
:1058E000EC110020EC020020441200200AD7233DD6
:1058F00000000C42641200209A99193FEADB00086C
:105900000AD7A33D00009642CDCC4C3E0000E642B3
:10591000F002002024030020EC030020F402002009
:10592000280300200EB50020FDF7CEFB4C48007B7D
:10593000012829D002281BD003280DD004282FD1FC
:105940004FF6FF703C2104230A46CDE900108E215A
:10595000002001F0CEFE00BF4FF6FF70322104237D
:105960004622CDE900107E21002001F0C2FE00BFDA
:105970004FF6FF70282104235022CDE900106E213C
:10598000002001F0B6FE00BF4FF6FF701E21042379
:105990005A22CDE900105E21002001F0AAFE00BFCE
:1059A00000BF2F48007B05284AD2DFE800F0031132
:1059B0001F2D3B004FF6FF7023217022294BCDE9AC
:1059C000002102908C224621002001F06BFC38E07F
:1059D0004FF6FF7023217022234BCDE90021029066
:1059E0008C224621002001F05DFC2AE04FF6FF707A
:1059F000232170221D4BCDE9002102908C224621EB
:105A0000002001F04FFC1CE04FF6FF7023217022B4
:105A1000174BCDE9002102908C224621002001F095
:105A200041FC0EE04FF6FF7023217022114BCDE9AF
:105A3000002102908C224621002001F033FC00E07E
:105A400000BF00BF4FF6FF701E2140220A4BCDE978
:105A500000210290AA225F21002001F023FC0EBD4C
:105A600084120020D5CD0008BFCF0008A9D10008BE
:105A700093D300087DD50008E5CC00080EB53C2086
:105A8000042302468E210090002001F051FE3220B6
:105A9000042346227E210090002001F049FE2820A8
:105AA000042350226E210090002001F041FE1E20B0
:105AB00004235A225E210090002001F039FE46485E
:105AC000007B012829D002281BD003280DD00428F0
:105AD0002FD14FF6FF703C2104230A46CDE9001078
